:020000040000FA
:100000008001002065010000690100006B01000013
:1000100000000000000000000000000000000000E0
:100020000000000000000000000000006D01000062
:1000300000000000000000006F010000B90A00008D
:1000400073010000750100007701000079010000D4
:100050007B0100007D0100007F01000081010000A4
:100060008301000085010000870100008901000074
:100070008B0100008D0100008F0100009101000044
:100080009301000095010000970100009901000014
:100090009B0100009D0100009F010000A1010000E4
:1000A000A3010000A5010000A7010000A9010000B4
:1000B000AB010000AD010000AF010000B101000084
:1000C00000F002F800F03EF80CA030C80838241800
:1000D0002D18A246671EAB4654465D46AC4201D180
:1000E00000F030F87E460F3E0FCCB6460126334274
:1000F00000D0FB1AA246AB4633431847980B0000CA
:10010000B80B0000103A02D378C878C1FAD8520769
:1001100001D330C830C101D504680C6070470000BD
:100120000023002400250026103A01D378C1FBD813
:10013000520700D330C100D50B6070471FB51FBDFB
:1001400010B510BD00F0F4F81146FFF7F7FF00F00E
:1001500089FD00F00CF903B4FFF7F2FF03BC00F0D7
:1001600013F9000016480047FEE7FEE7FEE7FEE74A
:10017000FEE7FEE7FEE7FEE7FEE7FEE7FEE7FEE757
:10018000FEE7FEE7FEE7FEE7FEE7FEE7FEE7FEE747
:10019000FEE7FEE7FEE7FEE7FEE7FEE7FEE7FEE737
:1001A000FEE7FEE7FEE7FEE7FEE7FEE7FEE7FEE727
:1001B000FEE7000003480449024A044B7047000070
:1001C000C10000008000002080010020800000208D
:1001D000002203098B422CD3030A8B4211D3002344
:1001E0009C464EE003460B433CD4002243088B421E
:1001F00031D303098B421CD3030A8B4201D39446AB
:100200003FE0C3098B4201D3CB01C01A524183099D
:100210008B4201D38B01C01A524143098B4201D357
:100220004B01C01A524103098B4201D30B01C01A82
:100230005241C3088B4201D3CB00C01A52418308FC
:100240008B4201D38B00C01A524143088B4201D329
:100250004B00C01A5241411A00D201465241104689
:1002600070475DE0CA0F00D04942031000D34042FE
:10027000534000229C4603098B422DD3030A8B4234
:1002800012D3FC22890112BA030A8B420CD38901D2
:1002900092118B4208D3890192118B4204D38901B8
:1002A0003AD0921100E08909C3098B4201D3CB01F6
:1002B000C01A524183098B4201D38B01C01A5241AB
:1002C00043098B4201D34B01C01A524103098B42AF
:1002D00001D30B01C01A5241C3088B4201D3CB009A
:1002E000C01A524183088B4201D38B00C01A52417D
:1002F000D9D243088B4201D34B00C01A5241411A54
:1003000000D20146634652415B10104601D3404281
:10031000002B00D54942704763465B1000D3404232
:1003200001B50020C046C04602BD70477047704707
:10033000754600F025F8AE46050069465346C008EC
:10034000C000854618B020B5FFF734FF60BC002719
:100350004908B6460026C0C5C0C5C0C5C0C5C0C591
:10036000C0C5C0C5C0C5403D49008D46704710B5E9
:100370000446C046C0462046FFF7EDFE10BD000013
:10038000004870471C00002001491820ABBEFEE762
:1003900026000200704701468808810041200006BF
:1003A0000818006870470000024A904200D100BF60
:1003B000704700000000064010B5914A8218002ADC
:1003C0007CD101229207926801231A439B079A600D
:1003D0000A78072A09DC8B4A12680B789C000F23E5
:1003E000A3409A43874B1A600CE00A780F2A09DC75
:1003F000844A52680B78083B9C000F23A3409A4321
:10040000804B5A604A78002A2AD17F4A12680C78B9
:100410000123A3401A437C4B1A607C4A13680C7872
:100420000122A2409343794A1360794A12680C78FA
:100430000123A3409A43764B1A60764A13680C78DE
:100440000122A2409343734A13606D4A524253689B
:100450000C780122A2409343694A52425360B7E0AC
:100460004A78012A2BD1684A12680C780123A340EC
:100470001A43654B1A60654A12680C780123A34041
:100480001A43624B1A60624A12680C780123A34037
:100490009A435F4B1A605F4A12680C780123A340AD
:1004A0009A435C4B1A60564A524253680C780122B8
:1004B000A2409343524A5242536089E09DE04A78F9
:1004C000022A2AD1504A12680C780123A3401A4309
:1004D0004D4B1A604D4A12680C780123A3409A4391
:1004E0004A4B1A604A4A12680C780123A3401A4307
:1004F000474B1A60474A12680C780123A3409A437D
:10050000444B1A603E4A524252680C780123A34081
:100510009A433B4B5B425A605AE04A78032A2AD1FD
:10052000394A13680C780122A2409343364A13607B
:10053000364A12680C780123A3409A43334B1A6061
:10054000334A12680C780123A3409A43304B1A6057
:10055000304A13680C780122A24093432D4A13605D
:10056000274A524252680C780123A3401A43244B75
:100570005B425A602CE04A78042A29D1224A126848
:100580000C780123A3409A431F4B1A601F4A12683C
:100590000C780123A3409A431C4B1A601C4A126832
:1005A0000C780123A3409A43194B1A60194A126828
:1005B0000C780123A3401A43164B1A60104A52428A
:1005C00052680C780123A3401A430D4B5B425A60DA
:1005D0008A78012A08D1104A12680C780123A340B6
:1005E0001A430D4B1A6007E00B4A13680C7801227E
:1005F000A2409343084A136000E000BF00BF10BD53
:100600000000FABF00000B4000010B4000020B404D
:1006100000030B4000040B4000050B4010B50346DF
:100620000C4621461846FFF7BFFE18680121A1407D
:100630004840186010BD10B503460C4621461846C8
:10064000FFF7B2FE18680121A1400843186010BDF1
:1006500010B500F007F8024800F092F810BD000055
:100660002D0C000010B564210B480068FFF7B0FDA9
:100670000446601E0949884200D90CE0601E084902
:1006800048610321081F00F03FF8002004498861F9
:100690000720086100BF10BD08000020FFFFFF0019
:1006A00000E000E008B5002000900A2168460170D3
:1006B0000321417069460448FFF77EFE0A21024883
:1006C000FFF7B9FF08BD00000000064010B5FFF7B6
:1006D000E9FF10BD10B507480068401C05490860D7
:1006E00008460068322803D90020086000F004F8AA
:1006F00010BD00000400002010B50A210148FFF7DA
:100700008DFF10BD0000064010B5002819DA1A4A06
:1007100003071B0F083B9B089B00D2588307DC0E86
:10072000FF23A3409A438B071B0E8407E40EA340CC
:100730001A43114B0407240F083CA408A4001A51C3
:1007400018E00E4A03231B02D21883089B00D258DC
:100750008307DC0EFF23A3409A438B071B0E8407FD
:10076000E40EA3401A43054B032424021B198408FA
:10077000A4001A5110BD00001CED00E000E100E0F3
:1007800003490968002901D1014908607047000048
:1007900000000020002027E00C214143144A51585A
:1007A00000291FD00C21414389180989491C8AB2AC
:1007B0000C2141430E4BC9180A810C2141431A46B2
:1007C00089180A890C214143C918C9888A4209DB62
:1007D00000220C214143C9180A8101220C21414306
:1007E000C9180A71411CC8B20128D5DB7047000046
:1007F0001000002070B50C2444430C4D2C59002CE3
:1008000012D10C244443295100250C244443074EA3
:10081000A41925710C24444335466419E28000254F
:100820000C244443A419258170BD00001000002051
:1008300016E0002412E00C2060430A4940180079B9
:10084000012809D100210C206043064A801801715B
:100850000C21614350588047601CC4B2012CEADB74
:10086000E7E7000010000020002012E000220C2129
:100870004143094B5A500C214143C9180A710C21BC
:100880004143C918CA800C214143C9180A81411C3F
:10089000C8B20128EADB70471000002000B5002331
:1008A00000F03CF80120800703680E2118468843B9
:1008B0000346302118468843034610200343800630
:1008C00003604068012108438907486008460068C2
:1008D000012108438907086000BD000000200E497F
:1008E00008680121084310220146914308460A493D
:1008F000086089050868302201469143084640088F
:10090000400001218907086049684908490001221F
:1009100092075160704700000001004000200D491F
:10092000086801210843102108430A490860890525
:1009300008683022014691430846400840000121E2
:1009400089070860496849084900012292075160F7
:10095000704700000001004000B50023FFF7DEFFF4
:100960000120800703680E211846884303460220B1
:10097000034340070360406801210843890748603A
:1009800008460068012108438907086000BD00008F
:1009900010B500230024FFF7C1FF13484068012170
:1009A00008431149486000BF00E0641C0F488442BE
:1009B000FBD3400603680E211846884303463021C6
:1009C00018468843034620200343400603604068DE
:1009D000012108438907486008460068012108434F
:1009E0008907086010BD000000010040A0860100DA
:1009F00010B500230024FFF791FF1448406801213F
:100A000008431249486000BF00E0641C104884425B
:100A1000FBD3400603680E21184688430346022094
:100A200003433021184688430346202003434006F1
:100A30000360406801210843890748600846006850
:100A4000012108438907086010BD00000001004033
:100A5000A086010010B500230024FFF75FFF1448B3
:100A60004068012108431249486000BF00E0641C4F
:100A700010488442FBD3400603680E211846884381
:100A800003460420034330211846884303462020B0
:100A9000034340060360406801210843890748601A
:100AA00008460068012108438907086010BD00005E
:100AB00000010040A086010010B5FFF76BFE10BDDD
:100AC00070B50446154D2E1F2846FFF764FC1449E7
:100AD00008623046FFF75FFC11494862230000F0CE
:100AE00097F80705080B0E1114171A00FFF7F6FE0A
:100AF00011E0FFF713FF0EE0FFF72EFF0BE0FFF70B
:100B000047FF08E0FFF774FF05E0FFF7A3FF02E0EF
:100B1000FFF7C4FE00BF00BF70BD0000E4FF03008C
:100B20000008004070B501240025A007006820409F
:100B300000280DD12F48006810210840002803D05C
:100B40002D482E49086047E02D482C49086043E0B5
:100B50000120800700680E210840410801208840DC
:100B6000C4B22448006810210840002807D0880635
:100B7000006870210840002801D16006040E0120A1
:100B800080070068702108400009002806D121462E
:100B90001B48FFF71DFB194908601DE00120800775
:100BA0000068702108400009012807D121467D20F6
:100BB0000002FFF70DFB114908600DE001208007DE
:100BC0000068702108400009022805D121460A4822
:100BD000FFF7FEFA094908600A4908480068FFF76C
:100BE000F7FA09490860002500E06D1C07488542B6
:100BF000FBD370BD0001004000366E0108000020EC
:100C0000006CDC0240420F000C000020A0860100B6
:100C100030B47446641E2578641CAB4204D3635D13
:100C20005B00E31830BC18471D46F8E770B5044672
:100C30000D46002C04D100F00CF8287072B607E0C5
:100C4000012C05D12878002801D062B600E072B6E8
:100C500070BD00BFEFF31080002801D10120704764
:100C60000020FCE710B50020FFF72AFFFFF75AFF2E
:100C7000FFF7EEFCFFF7F8FDFFF728FD01231A460A
:100C800003490020FFF7B6FDFFF7D2FD002010BD9D
:100C9000D5060000B40C0000000000201000000089
:100CA00004010000C40C00001000002070010000CE
:100CB000200100000000000000000000006CDC02C9
:040CC0003000000000
:04000005000000C136
:00000001FF
